{
  "contractName": "DonationsManager",
  "abi": [
    {
      "constant": false,
      "inputs": [],
      "name": "renounceOwnership",
      "outputs": [],
      "payable": false,
      "stateMutability": "nonpayable",
      "type": "function"
    },
    {
      "constant": true,
      "inputs": [],
      "name": "owner",
      "outputs": [
        {
          "name": "",
          "type": "address"
        }
      ],
      "payable": false,
      "stateMutability": "view",
      "type": "function"
    },
    {
      "constant": true,
      "inputs": [],
      "name": "_owner",
      "outputs": [
        {
          "name": "",
          "type": "address"
        }
      ],
      "payable": false,
      "stateMutability": "view",
      "type": "function"
    },
    {
      "constant": true,
      "inputs": [
        {
          "name": "",
          "type": "address"
        }
      ],
      "name": "donations",
      "outputs": [
        {
          "name": "donor",
          "type": "address"
        },
        {
          "name": "amount",
          "type": "uint256"
        },
        {
          "name": "timestamp",
          "type": "uint256"
        },
        {
          "name": "countryName",
          "type": "bytes32"
        }
      ],
      "payable": false,
      "stateMutability": "view",
      "type": "function"
    },
    {
      "constant": false,
      "inputs": [
        {
          "name": "_newOwner",
          "type": "address"
        }
      ],
      "name": "transferOwnership",
      "outputs": [],
      "payable": false,
      "stateMutability": "nonpayable",
      "type": "function"
    },
    {
      "constant": true,
      "inputs": [
        {
          "name": "",
          "type": "bytes32"
        }
      ],
      "name": "countries",
      "outputs": [
        {
          "name": "currentISP",
          "type": "address"
        },
        {
          "name": "balance",
          "type": "uint256"
        },
        {
          "name": "monthlyServiceCost",
          "type": "uint256"
        }
      ],
      "payable": false,
      "stateMutability": "view",
      "type": "function"
    },
    {
      "inputs": [],
      "payable": false,
      "stateMutability": "nonpayable",
      "type": "constructor"
    },
    {
      "anonymous": false,
      "inputs": [
        {
          "indexed": true,
          "name": "isp",
          "type": "address"
        },
        {
          "indexed": true,
          "name": "countryName",
          "type": "bytes32"
        },
        {
          "indexed": true,
          "name": "monthlyServiceCost",
          "type": "uint256"
        }
      ],
      "name": "UpdatedISP",
      "type": "event"
    },
    {
      "anonymous": false,
      "inputs": [
        {
          "indexed": false,
          "name": "countryName",
          "type": "bytes32"
        },
        {
          "indexed": false,
          "name": "donor",
          "type": "address"
        },
        {
          "indexed": false,
          "name": "amount",
          "type": "uint256"
        },
        {
          "indexed": false,
          "name": "time",
          "type": "uint256"
        }
      ],
      "name": "DonationAdded",
      "type": "event"
    },
    {
      "anonymous": false,
      "inputs": [
        {
          "indexed": false,
          "name": "countryName",
          "type": "bytes32"
        },
        {
          "indexed": false,
          "name": "ISP",
          "type": "address"
        },
        {
          "indexed": false,
          "name": "amount",
          "type": "uint256"
        }
      ],
      "name": "WithdrawalISP",
      "type": "event"
    },
    {
      "anonymous": false,
      "inputs": [
        {
          "indexed": true,
          "name": "previousOwner",
          "type": "address"
        }
      ],
      "name": "OwnershipRenounced",
      "type": "event"
    },
    {
      "anonymous": false,
      "inputs": [
        {
          "indexed": true,
          "name": "previousOwner",
          "type": "address"
        },
        {
          "indexed": true,
          "name": "newOwner",
          "type": "address"
        }
      ],
      "name": "OwnershipTransferred",
      "type": "event"
    },
    {
      "anonymous": false,
      "inputs": [
        {
          "indexed": true,
          "name": "id",
          "type": "bytes32"
        }
      ],
      "name": "ChainlinkRequested",
      "type": "event"
    },
    {
      "anonymous": false,
      "inputs": [
        {
          "indexed": true,
          "name": "id",
          "type": "bytes32"
        }
      ],
      "name": "ChainlinkFulfilled",
      "type": "event"
    },
    {
      "anonymous": false,
      "inputs": [
        {
          "indexed": true,
          "name": "id",
          "type": "bytes32"
        }
      ],
      "name": "ChainlinkCancelled",
      "type": "event"
    },
    {
      "constant": false,
      "inputs": [
        {
          "name": "isp",
          "type": "address"
        },
        {
          "name": "country",
          "type": "bytes32"
        },
        {
          "name": "serviceCost",
          "type": "uint256"
        }
      ],
      "name": "updateISP",
      "outputs": [],
      "payable": false,
      "stateMutability": "nonpayable",
      "type": "function"
    },
    {
      "constant": false,
      "inputs": [
        {
          "name": "nameofCountry",
          "type": "bytes32"
        }
      ],
      "name": "addDonation",
      "outputs": [],
      "payable": false,
      "stateMutability": "nonpayable",
      "type": "function"
    },
    {
      "constant": false,
      "inputs": [
        {
          "name": "countryName",
          "type": "bytes32"
        }
      ],
      "name": "withdraw",
      "outputs": [],
      "payable": false,
      "stateMutability": "nonpayable",
      "type": "function"
    },
    {
      "constant": false,
      "inputs": [
        {
          "name": "_oracle",
          "type": "address"
        },
        {
          "name": "_jobId",
          "type": "string"
        }
      ],
      "name": "requestEthereumPrice",
      "outputs": [],
      "payable": false,
      "stateMutability": "nonpayable",
      "type": "function"
    },
    {
      "constant": false,
      "inputs": [
        {
          "name": "_requestId",
          "type": "bytes32"
        },
        {
          "name": "_price",
          "type": "uint256"
        }
      ],
      "name": "fulfill",
      "outputs": [],
      "payable": false,
      "stateMutability": "nonpayable",
      "type": "function"
    }
  ],
  "bytecode": "0x608060405260016004553480156200001657600080fd5b5033600660006101000a81548173ffffffffffffffffffffffffffffffffffffffff021916908373ffffffffffffffffffffffffffffffffffffffff16021790555033600760006101000a81548173ffffffffffffffffffffffffffffffffffffffff021916908373ffffffffffffffffffffffffffffffffffffffff160217905550620000b2620000b8640100000000026401000000009004565b620001cd565b6200018773c89bd4e1632d3a43cb03aaad5262cbe4038bc57173ffffffffffffffffffffffffffffffffffffffff166338cc48316040518163ffffffff167c0100000000000000000000000000000000000000000000000000000000028152600401602060405180830381600087803b1580156200013557600080fd5b505af11580156200014a573d6000803e3d6000fd5b505050506040513d60208110156200016157600080fd5b810190808051906020019092919050505062000189640100000000026401000000009004565b565b80600260006101000a81548173ffffffffffffffffffffffffffffffffffffffff021916908373ffffffffffffffffffffffffffffffffffffffff16021790555050565b61202880620001dd6000396000f3006080604052600436106100af576000357c0100000000000000000000000000000000000000000000000000000000900463ffffffff1680634357855e146100b4578063715018a6146100ef5780638da5cb5b146101065780638e19899e1461015d578063a72959e21461018e578063ab643c10146101bf578063b2bdfa7b14610248578063cc6cb19a1461029f578063f2fde38b1461033f578063fae865a514610382578063fe1a5670146103dd575b600080fd5b3480156100c057600080fd5b506100ed60048036038101908080356000191690602001909291908035906020019092919050505061045c565b005b3480156100fb57600080fd5b506101046105dc565b005b34801561011257600080fd5b5061011b61074a565b604051808273ffffffffffffffffffffffffffffffffffffffff1673ffffffffffffffffffffffffffffffffffffffff16815260200191505060405180910390f35b34801561016957600080fd5b5061018c6004803603810190808035600019169060200190929190505050610770565b005b34801561019a57600080fd5b506101bd6004803603810190808035600019169060200190929190505050610b59565b005b3480156101cb57600080fd5b50610246600480360381019080803573ffffffffffffffffffffffffffffffffffffffff169060200190929190803590602001908201803590602001908080601f0160208091040260200160405190810160405280939291908181526020018383808284378201915050505050509192919290505050610d39565b005b34801561025457600080fd5b5061025d610fca565b604051808273ffffffffffffffffffffffffffffffffffffffff1673ffffffffffffffffffffffffffffffffffffffff16815260200191505060405180910390f35b3480156102ab57600080fd5b506102e0600480360381019080803573ffffffffffffffffffffffffffffffffffffffff169060200190929190505050610ff0565b604051808573ffffffffffffffffffffffffffffffffffffffff1673ffffffffffffffffffffffffffffffffffffffff168152602001848152602001838152602001826000191660001916815260200194505050505060405180910390f35b34801561034b57600080fd5b50610380600480360381019080803573ffffffffffffffffffffffffffffffffffffffff169060200190929190505050611040565b005b34801561038e57600080fd5b506103db600480360381019080803573ffffffffffffffffffffffffffffffffffffffff169060200190929190803560001916906020019092919080359060200190929190505050611111565b005b3480156103e957600080fd5b5061040c60048036038101908080356000191690602001909291905050506112a4565b604051808473ffffffffffffffffffffffffffffffffffffffff1673ffffffffffffffffffffffffffffffffffffffff168152602001838152602001828152602001935050505060405180910390f35b8160056000826000191660001916815260200190815260200160002060009054906101000a900473ffffffffffffffffffffffffffffffffffffffff1673ffffffffffffffffffffffffffffffffffffffff163373ffffffffffffffffffffffffffffffffffffffff16141515610561576040517f08c379a00000000000000000000000000000000000000000000000000000000081526004018080602001828103825260288152602001807f536f75726365206d75737420626520746865206f7261636c65206f662074686581526020017f207265717565737400000000000000000000000000000000000000000000000081525060400191505060405180910390fd5b60056000826000191660001916815260200190815260200160002060006101000a81549073ffffffffffffffffffffffffffffffffffffffff021916905580600019167f7cc135e0cebb02c3480ae5d74d377283180a2601f8f644edf7987b009316c63a60405160405180910390a281600881905550505050565b600760009054906101000a900473ffffffffffffffffffffffffffffffffffffffff1673ffffffffffffffffffffffffffffffffffffffff163373ffffffffffffffffffffffffffffffffffffffff161415156106a1576040517f08c379a000000000000000000000000000000000000000000000000000000000815260040180806020018281038252600d8152602001807f6e6f7420746865206f776e65720000000000000000000000000000000000000081525060200191505060405180910390fd5b600660009054906101000a900473ffffffffffffffffffffffffffffffffffffffff1673ffffffffffffffffffffffffffffffffffffffff167ff8df31144d9c2f0f6b59d69b8b98abd5459d07f2742c4df920b25aae33c6482060405160405180910390a26000600660006101000a81548173ffffffffffffffffffffffffffffffffffffffff021916908373ffffffffffffffffffffffffffffffffffffffff160217905550565b600660009054906101000a900473ffffffffffffffffffffffffffffffffffffffff1681565b803373ffffffffffffffffffffffffffffffffffffffff1660096000836000191660001916815260200190815260200160002060000160009054906101000a900473ffffffffffffffffffffffffffffffffffffffff1673ffffffffffffffffffffffffffffffffffffffff16141515610852576040517f08c379a000000000000000000000000000000000000000000000000000000000815260040180806020018281038252601c8152602001807f6e6f74207468652049535020666f72207468697320636f756e7472790000000081525060200191505060405180910390fd5b3373ffffffffffffffffffffffffffffffffffffffff1660096000846000191660001916815260200190815260200160002060000160009054906101000a900473ffffffffffffffffffffffffffffffffffffffff1673ffffffffffffffffffffffffffffffffffffffff16141515610933576040517f08c379a000000000000000000000000000000000000000000000000000000000815260040180806020018281038252601c8152602001807f6e6f74207468652049535020666f72207468697320636f756e7472790000000081525060200191505060405180910390fd5b600960008360001916600019168152602001908152602001600020600201546009600084600019166000191681526020019081526020016000206001015410151515610a0d576040517f08c379a00000000000000000000000000000000000000000000000000000000081526004018080602001828103825260298152602001807f6e6f7420656e6f7567682066756e64696e6720666f7220636f766572206d6f6e81526020017f74686c7920636f7374000000000000000000000000000000000000000000000081525060400191505060405180910390fd5b60096000836000191660001916815260200190815260200160002060020154600960008460001916600019168152602001908152602001600020600101600082825403925050819055503373ffffffffffffffffffffffffffffffffffffffff166108fc600960008560001916600019168152602001908152602001600020600201549081150290604051600060405180830381858888f19350505050158015610abb573d6000803e3d6000fd5b507fbcd90c4359544168249236f71b55a51acdb7fcaa115dcc13513c6ecdaac6541c8233600960008660001916600019168152602001908152602001600020600201546040518084600019166000191681526020018373ffffffffffffffffffffffffffffffffffffffff1673ffffffffffffffffffffffffffffffffffffffff168152602001828152602001935050505060405180910390a15050565b33600a60003373ffffffffffffffffffffffffffffffffffffffff1673ffffffffffffffffffffffffffffffffffffffff16815260200190815260200160002060000160006101000a81548173ffffffffffffffffffffffffffffffffffffffff021916908373ffffffffffffffffffffffffffffffffffffffff16021790555034600a60003373ffffffffffffffffffffffffffffffffffffffff1673ffffffffffffffffffffffffffffffffffffffff1681526020019081526020016000206001018190555080600a60003373ffffffffffffffffffffffffffffffffffffffff1673ffffffffffffffffffffffffffffffffffffffff168152602001908152602001600020600301816000191690555042600a60003373ffffffffffffffffffffffffffffffffffffffff1673ffffffffffffffffffffffffffffffffffffffff168152602001908152602001600020600201819055507fd8ad61f2a0747b0f283c8a708ff2f3a276239cc4cea9a86145cac30980b8e141813334426040518085600019166000191681526020018473ffffffffffffffffffffffffffffffffffffffff1673ffffffffffffffffffffffffffffffffffffffff16815260200183815260200182815260200194505050505060405180910390a150565b610d41611f5a565b600760009054906101000a900473ffffffffffffffffffffffffffffffffffffffff1673ffffffffffffffffffffffffffffffffffffffff163373ffffffffffffffffffffffffffffffffffffffff16141515610e06576040517f08c379a000000000000000000000000000000000000000000000000000000000815260040180806020018281038252600d8152602001807f6e6f7420746865206f776e65720000000000000000000000000000000000000081525060200191505060405180910390fd5b610e3c610e12836112ee565b30634357855e7c010000000000000000000000000000000000000000000000000000000002611319565b9050610ee46040805190810160405280600381526020017f75726c0000000000000000000000000000000000000000000000000000000000815250606060405190810160405280603f81526020017f68747470733a2f2f6d696e2d6170692e63727970746f636f6d706172652e636f81526020017f6d2f646174612f70726963653f6673796d3d455448267473796d733d555344008152508361134a9092919063ffffffff16565b610f636040805190810160405280600481526020017f70617468000000000000000000000000000000000000000000000000000000008152506040805190810160405280600381526020017f55534400000000000000000000000000000000000000000000000000000000008152508361134a9092919063ffffffff16565b610fae6040805190810160405280600581526020017f74696d657300000000000000000000000000000000000000000000000000000081525060648361137d9092919063ffffffff16565b610fc48382670de0b6b3a76400006001026113b0565b50505050565b600760009054906101000a900473ffffffffffffffffffffffffffffffffffffffff1681565b600a6020528060005260406000206000915090508060000160009054906101000a900473ffffffffffffffffffffffffffffffffffffffff16908060010154908060020154908060030154905084565b600760009054906101000a900473ffffffffffffffffffffffffffffffffffffffff1673ffffffffffffffffffffffffffffffffffffffff163373ffffffffffffffffffffffffffffffffffffffff16141515611105576040517f08c379a000000000000000000000000000000000000000000000000000000000815260040180806020018281038252600d8152602001807f6e6f7420746865206f776e65720000000000000000000000000000000000000081525060200191505060405180910390fd5b61110e8161173c565b50565b600760009054906101000a900473ffffffffffffffffffffffffffffffffffffffff1673ffffffffffffffffffffffffffffffffffffffff163373ffffffffffffffffffffffffffffffffffffffff161415156111d6576040517f08c379a000000000000000000000000000000000000000000000000000000000815260040180806020018281038252600d8152602001807f6e6f7420746865206f776e65720000000000000000000000000000000000000081525060200191505060405180910390fd5b8260096000846000191660001916815260200190815260200160002060000160006101000a81548173ffffffffffffffffffffffffffffffffffffffff021916908373ffffffffffffffffffffffffffffffffffffffff16021790555080600960008460001916600019168152602001908152602001600020600201819055508082600019168473ffffffffffffffffffffffffffffffffffffffff167f70998ff735809161ac38d546214e42b3ff43c761d6ebd5f1935d519daa0548ff60405160405180910390a4505050565b60096020528060005260406000206000915090508060000160009054906101000a900473ffffffffffffffffffffffffffffffffffffffff16908060010154908060020154905083565b6000606082905060008151141561130b5760006001029150611313565b602083015191505b50919050565b611321611f5a565b611329611f5a565b61134085858584611838909392919063ffffffff16565b9150509392505050565b6113618284608001516118f290919063ffffffff16565b6113788184608001516118f290919063ffffffff16565b505050565b6113948284608001516118f290919063ffffffff16565b6113ab81846080015161191790919063ffffffff16565b505050565b600030600454604051602001808373ffffffffffffffffffffffffffffffffffffffff1673ffffffffffffffffffffffffffffffffffffffff166c01000000000000000000000000028152601401828152602001925050506040516020818303038152906040526040518082805190602001908083835b60208310151561144c5780518252602082019150602081019050602083039250611427565b6001836020036101000a038019825116818451168082178552505050505050905001915050604051809103902090506004548360600181815250508360056000836000191660001916815260200190815260200160002060006101000a81548173ffffffffffffffffffffffffffffffffffffffff021916908373ffffffffffffffffffffffffffffffffffffffff16021790555080600019167fb5e6e01e79f91267dc17b4e6314d5d4d03593d2ceee0fbb452b750bd70ea5af960405160405180910390a2600260009054906101000a900473ffffffffffffffffffffffffffffffffffffffff1673ffffffffffffffffffffffffffffffffffffffff16634000aea0858461155b87611965565b6040518463ffffffff167c0100000000000000000000000000000000000000000000000000000000028152600401808473ffffffffffffffffffffffffffffffffffffffff1673ffffffffffffffffffffffffffffffffffffffff16815260200183815260200180602001828103825283818151815260200191508051906020019080838360005b838110156115fe5780820151818401526020810190506115e3565b50505050905090810190601f16801561162b5780820380516001836020036101000a031916815260200191505b50945050505050602060405180830381600087803b15801561164c57600080fd5b505af1158015611660573d6000803e3d6000fd5b505050506040513d602081101561167657600080fd5b81019080805190602001909291905050501515611721576040517f08c379a00000000000000000000000000000000000000000000000000000000081526004018080602001828103825260238152602001807f756e61626c6520746f207472616e73666572416e6443616c6c20746f206f726181526020017f636c65000000000000000000000000000000000000000000000000000000000081525060400191505060405180910390fd5b60016004600082825401925050819055508090509392505050565b600073ffffffffffffffffffffffffffffffffffffffff168173ffffffffffffffffffffffffffffffffffffffff161415151561177857600080fd5b8073ffffffffffffffffffffffffffffffffffffffff16600660009054906101000a900473ffffffffffffffffffffffffffffffffffffffff1673ffffffffffffffffffffffffffffffffffffffff167f8be0079c531659141344cd1fd0a4f28419497f9722a3daafe3b4186f6b6457e060405160405180910390a380600660006101000a81548173ffffffffffffffffffffffffffffffffffffffff021916908373ffffffffffffffffffffffffffffffffffffffff16021790555050565b611840611f5a565b6118508560800151610100611b90565b50838560000190600019169081600019168152505082856020019073ffffffffffffffffffffffffffffffffffffffff16908173ffffffffffffffffffffffffffffffffffffffff16815250508185604001907bffffffffffffffffffffffffffffffffffffffffffffffffffffffff191690817bffffffffffffffffffffffffffffffffffffffffffffffffffffffff191681525050849050949350505050565b6118ff8260038351611bea565b6119128183611d4890919063ffffffff16565b505050565b6000811215156119325761192d82600083611bea565b611961565b611960826001837fffffffffffffffffffffffffffffffffffffffffffffffffffffffffffffffff03611bea565b5b5050565b6060600360009054906101000a900473ffffffffffffffffffffffffffffffffffffffff1673ffffffffffffffffffffffffffffffffffffffff16634042994690507c01000000000000000000000000000000000000000000000000000000000260008084600001518560200151866040015187606001516001896080015160000151604051602401808973ffffffffffffffffffffffffffffffffffffffff1673ffffffffffffffffffffffffffffffffffffffff16815260200188815260200187600019166000191681526020018673ffffffffffffffffffffffffffffffffffffffff1673ffffffffffffffffffffffffffffffffffffffff168152602001857bffffffffffffffffffffffffffffffffffffffffffffffffffffffff19167bffffffffffffffffffffffffffffffffffffffffffffffffffffffff1916815260200184815260200183815260200180602001828103825283818151815260200191508051906020019080838360005b83811015611af3578082015181840152602081019050611ad8565b50505050905090810190601f168015611b205780820380516001836020036101000a031916815260200191505b509950505050505050505050604051602081830303815290604052907bffffffffffffffffffffffffffffffffffffffffffffffffffffffff19166020820180517bffffffffffffffffffffffffffffffffffffffffffffffffffffffff83818316178352505050509050919050565b611b98611fc8565b6000602083811515611ba657fe5b06141515611bc357602082811515611bba57fe5b06602003820191505b81836020018181525050604051808452600081528281016020016040525082905092915050565b601781111515611c1c57611c168160058460ff169060020a0260ff161784611d6a90919063ffffffff16565b50611d43565b60ff81111515611c6357611c46601860058460ff169060020a021784611d6a90919063ffffffff16565b50611c5d81600185611d8a9092919063ffffffff16565b50611d42565b61ffff81111515611cab57611c8e601960058460ff169060020a021784611d6a90919063ffffffff16565b50611ca581600285611d8a9092919063ffffffff16565b50611d41565b63ffffffff81111515611cf557611cd8601a60058460ff169060020a021784611d6a90919063ffffffff16565b50611cef81600485611d8a9092919063ffffffff16565b50611d40565b67ffffffffffffffff81111515611d3f57611d26601b60058460ff169060020a021784611d6a90919063ffffffff16565b50611d3d81600885611d8a9092919063ffffffff16565b505b5b5b5b5b505050565b611d50611fc8565b611d6283846000015151848551611dac565b905092915050565b611d72611fc8565b611d828384600001515184611e69565b905092915050565b611d92611fc8565b611da3848560000151518585611eb9565b90509392505050565b611db4611fc8565b600080600085518511151515611dc957600080fd5b87602001518588011115611df457611df3886002611ded8b602001518b8a01611f1a565b02611f36565b5b875180518860208301019450808988011115611e105788870182525b60208801935050505b602085101515611e3e5781518352602083019250602082019150602085039450611e19565b6001856020036101000a03905080198251168184511681811785525050879350505050949350505050565b611e71611fc8565b836020015183101515611e9057611e8f846002866020015102611f36565b5b8351805160208583010184815381861415611eac576001820183525b5050508390509392505050565b611ec1611fc8565b600085602001518584011115611ee157611ee086600287860102611f36565b5b6001836101000a0390508551838682010185831982511617815281518588011115611f0c5784870182525b505085915050949350505050565b600081831115611f2c57829050611f30565b8190505b92915050565b606082600001519050611f498383611b90565b50611f548382611d48565b50505050565b60c06040519081016040528060008019168152602001600073ffffffffffffffffffffffffffffffffffffffff16815260200160007bffffffffffffffffffffffffffffffffffffffffffffffffffffffff1916815260200160008152602001611fc2611fe2565b81525090565b604080519081016040528060608152602001600081525090565b6040805190810160405280606081526020016000815250905600a165627a7a7230582054cf8a7c7b2441a7a45e81b3d705baa1f9d2d58d38df03bc6680dae822807b510029",
  "source": "\n// // File: @ensdomains/buffer/contracts/Buffer.sol\n\n// pragma solidity >0.4.18;\n\n// /**\n// * @dev A library for working with mutable byte buffers in Solidity.\n// *\n// * Byte buffers are mutable and expandable, and provide a variety of primitives\n// * for writing to them. At any time you can fetch a bytes object containing the\n// * current contents of the buffer. The bytes object should not be stored between\n// * operations, as it may change due to resizing of the buffer.\n// */\n// library Buffer {\n//     /**\n//     * @dev Represents a mutable buffer. Buffers have a current value (buf) and\n//     *      a capacity. The capacity may be longer than the current value, in\n//     *      which case it can be extended without the need to allocate more memory.\n//     */\n//     struct buffer {\n//         bytes buf;\n//         uint capacity;\n//     }\n\n//     /**\n//     * @dev Initializes a buffer with an initial capacity.\n//     * @param buf The buffer to initialize.\n//     * @param capacity The number of bytes of space to allocate the buffer.\n//     * @return The buffer, for chaining.\n//     */\n//     function init(buffer memory buf, uint capacity) internal pure returns(buffer memory) {\n//         if (capacity % 32 != 0) {\n//             capacity += 32 - (capacity % 32);\n//         }\n//         // Allocate space for the buffer data\n//         buf.capacity = capacity;\n//         assembly {\n//             let ptr := mload(0x40)\n//             mstore(buf, ptr)\n//             mstore(ptr, 0)\n//             mstore(0x40, add(32, add(ptr, capacity)))\n//         }\n//         return buf;\n//     }\n\n//     /**\n//     * @dev Initializes a new buffer from an existing bytes object.\n//     *      Changes to the buffer may mutate the original value.\n//     * @param b The bytes object to initialize the buffer with.\n//     * @return A new buffer.\n//     */\n//     function fromBytes(bytes memory b) internal pure returns(buffer memory) {\n//         buffer memory buf;\n//         buf.buf = b;\n//         buf.capacity = b.length;\n//         return buf;\n//     }\n\n//     function resize(buffer memory buf, uint capacity) private pure {\n//         bytes memory oldbuf = buf.buf;\n//         init(buf, capacity);\n//         append(buf, oldbuf);\n//     }\n\n//     function max(uint a, uint b) private pure returns(uint) {\n//         if (a > b) {\n//             return a;\n//         }\n//         return b;\n//     }\n\n//     /**\n//     * @dev Sets buffer length to 0.\n//     * @param buf The buffer to truncate.\n//     * @return The original buffer, for chaining..\n//     */\n//     function truncate(buffer memory buf) internal pure returns (buffer memory) {\n//         assembly {\n//             let bufptr := mload(buf)\n//             mstore(bufptr, 0)\n//         }\n//         return buf;\n//     }\n\n//     /**\n//     * @dev Writes a byte string to a buffer. Resizes if doing so would exceed\n//     *      the capacity of the buffer.\n//     * @param buf The buffer to append to.\n//     * @param off The start offset to write to.\n//     * @param data The data to append.\n//     * @param len The number of bytes to copy.\n//     * @return The original buffer, for chaining.\n//     */\n//     function write(buffer memory buf, uint off, bytes memory data, uint len) internal pure returns(buffer memory) {\n//         require(len <= data.length);\n\n//         if (off + len > buf.capacity) {\n//             resize(buf, max(buf.capacity, len + off) * 2);\n//         }\n\n//         uint dest;\n//         uint src;\n//         assembly {\n//             // Memory address of the buffer data\n//             let bufptr := mload(buf)\n//             // Length of existing buffer data\n//             let buflen := mload(bufptr)\n//             // Start address = buffer address + offset + sizeof(buffer length)\n//             dest := add(add(bufptr, 32), off)\n//             // Update buffer length if we're extending it\n//             if gt(add(len, off), buflen) {\n//                 mstore(bufptr, add(len, off))\n//             }\n//             src := add(data, 32)\n//         }\n\n//         // Copy word-length chunks while possible\n//         for (; len >= 32; len -= 32) {\n//             assembly {\n//                 mstore(dest, mload(src))\n//             }\n//             dest += 32;\n//             src += 32;\n//         }\n\n//         // Copy remaining bytes\n//         uint mask = 256 ** (32 - len) - 1;\n//         assembly {\n//             let srcpart := and(mload(src), not(mask))\n//             let destpart := and(mload(dest), mask)\n//             mstore(dest, or(destpart, srcpart))\n//         }\n\n//         return buf;\n//     }\n\n//     /**\n//     * @dev Appends a byte string to a buffer. Resizes if doing so would exceed\n//     *      the capacity of the buffer.\n//     * @param buf The buffer to append to.\n//     * @param data The data to append.\n//     * @param len The number of bytes to copy.\n//     * @return The original buffer, for chaining.\n//     */\n//     function append(buffer memory buf, bytes memory data, uint len) internal pure returns (buffer memory) {\n//         return write(buf, buf.buf.length, data, len);\n//     }\n\n//     /**\n//     * @dev Appends a byte string to a buffer. Resizes if doing so would exceed\n//     *      the capacity of the buffer.\n//     * @param buf The buffer to append to.\n//     * @param data The data to append.\n//     * @return The original buffer, for chaining.\n//     */\n//     function append(buffer memory buf, bytes memory data) internal pure returns (buffer memory) {\n//         return write(buf, buf.buf.length, data, data.length);\n//     }\n\n//     /**\n//     * @dev Writes a byte to the buffer. Resizes if doing so would exceed the\n//     *      capacity of the buffer.\n//     * @param buf The buffer to append to.\n//     * @param off The offset to write the byte at.\n//     * @param data The data to append.\n//     * @return The original buffer, for chaining.\n//     */\n//     function writeUint8(buffer memory buf, uint off, uint8 data) internal pure returns(buffer memory) {\n//         if (off >= buf.capacity) {\n//             resize(buf, buf.capacity * 2);\n//         }\n\n//         assembly {\n//             // Memory address of the buffer data\n//             let bufptr := mload(buf)\n//             // Length of existing buffer data\n//             let buflen := mload(bufptr)\n//             // Address = buffer address + sizeof(buffer length) + off\n//             let dest := add(add(bufptr, off), 32)\n//             mstore8(dest, data)\n//             // Update buffer length if we extended it\n//             if eq(off, buflen) {\n//                 mstore(bufptr, add(buflen, 1))\n//             }\n//         }\n//         return buf;\n//     }\n\n//     /**\n//     * @dev Appends a byte to the buffer. Resizes if doing so would exceed the\n//     *      capacity of the buffer.\n//     * @param buf The buffer to append to.\n//     * @param data The data to append.\n//     * @return The original buffer, for chaining.\n//     */\n//     function appendUint8(buffer memory buf, uint8 data) internal pure returns(buffer memory) {\n//         return writeUint8(buf, buf.buf.length, data);\n//     }\n\n//     /**\n//     * @dev Writes up to 32 bytes to the buffer. Resizes if doing so would\n//     *      exceed the capacity of the buffer.\n//     * @param buf The buffer to append to.\n//     * @param off The offset to write at.\n//     * @param data The data to append.\n//     * @param len The number of bytes to write (left-aligned).\n//     * @return The original buffer, for chaining.\n//     */\n//     function write(buffer memory buf, uint off, bytes32 data, uint len) private pure returns(buffer memory) {\n//         if (len + off > buf.capacity) {\n//             resize(buf, (len + off) * 2);\n//         }\n\n//         uint mask = 256 ** len - 1;\n//         // Right-align data\n//         data = data >> (8 * (32 - len));\n//         assembly {\n//             // Memory address of the buffer data\n//             let bufptr := mload(buf)\n//             // Address = buffer address + sizeof(buffer length) + off + len\n//             let dest := add(add(bufptr, off), len)\n//             mstore(dest, or(and(mload(dest), not(mask)), data))\n//             // Update buffer length if we extended it\n//             if gt(add(off, len), mload(bufptr)) {\n//                 mstore(bufptr, add(off, len))\n//             }\n//         }\n//         return buf;\n//     }\n\n//     /**\n//     * @dev Writes a bytes20 to the buffer. Resizes if doing so would exceed the\n//     *      capacity of the buffer.\n//     * @param buf The buffer to append to.\n//     * @param off The offset to write at.\n//     * @param data The data to append.\n//     * @return The original buffer, for chaining.\n//     */\n//     function writeBytes20(buffer memory buf, uint off, bytes20 data) internal pure returns (buffer memory) {\n//         return write(buf, off, bytes32(data), 20);\n//     }\n\n//     /**\n//     * @dev Appends a bytes20 to the buffer. Resizes if doing so would exceed\n//     *      the capacity of the buffer.\n//     * @param buf The buffer to append to.\n//     * @param data The data to append.\n//     * @return The original buffer, for chhaining.\n//     */\n//     function appendBytes20(buffer memory buf, bytes20 data) internal pure returns (buffer memory) {\n//         return write(buf, buf.buf.length, bytes32(data), 20);\n//     }\n\n//     /**\n//     * @dev Appends a bytes32 to the buffer. Resizes if doing so would exceed\n//     *      the capacity of the buffer.\n//     * @param buf The buffer to append to.\n//     * @param data The data to append.\n//     * @return The original buffer, for chaining.\n//     */\n//     function appendBytes32(buffer memory buf, bytes32 data) internal pure returns (buffer memory) {\n//         return write(buf, buf.buf.length, data, 32);\n//     }\n\n//     /**\n//     * @dev Writes an integer to the buffer. Resizes if doing so would exceed\n//     *      the capacity of the buffer.\n//     * @param buf The buffer to append to.\n//     * @param off The offset to write at.\n//     * @param data The data to append.\n//     * @param len The number of bytes to write (right-aligned).\n//     * @return The original buffer, for chaining.\n//     */\n//     function writeInt(buffer memory buf, uint off, uint data, uint len) private pure returns(buffer memory) {\n//         if (len + off > buf.capacity) {\n//             resize(buf, (len + off) * 2);\n//         }\n\n//         uint mask = 256 ** len - 1;\n//         assembly {\n//             // Memory address of the buffer data\n//             let bufptr := mload(buf)\n//             // Address = buffer address + off + sizeof(buffer length) + len\n//             let dest := add(add(bufptr, off), len)\n//             mstore(dest, or(and(mload(dest), not(mask)), data))\n//             // Update buffer length if we extended it\n//             if gt(add(off, len), mload(bufptr)) {\n//                 mstore(bufptr, add(off, len))\n//             }\n//         }\n//         return buf;\n//     }\n\n//     /**\n//      * @dev Appends a byte to the end of the buffer. Resizes if doing so would\n//      * exceed the capacity of the buffer.\n//      * @param buf The buffer to append to.\n//      * @param data The data to append.\n//      * @return The original buffer.\n//      */\n//     function appendInt(buffer memory buf, uint data, uint len) internal pure returns(buffer memory) {\n//         return writeInt(buf, buf.buf.length, data, len);\n//     }\n// }\n\n// // File: solidity-cborutils/contracts/CBOR.sol\n\n// pragma solidity ^0.4.19;\n\n\n// library CBOR {\n//     using Buffer for Buffer.buffer;\n\n//     uint8 private constant MAJOR_TYPE_INT = 0;\n//     uint8 private constant MAJOR_TYPE_NEGATIVE_INT = 1;\n//     uint8 private constant MAJOR_TYPE_BYTES = 2;\n//     uint8 private constant MAJOR_TYPE_STRING = 3;\n//     uint8 private constant MAJOR_TYPE_ARRAY = 4;\n//     uint8 private constant MAJOR_TYPE_MAP = 5;\n//     uint8 private constant MAJOR_TYPE_CONTENT_FREE = 7;\n\n//     function encodeType(Buffer.buffer memory buf, uint8 major, uint value) private pure {\n//         if(value <= 23) {\n//             buf.appendUint8(uint8((major << 5) | value));\n//         } else if(value <= 0xFF) {\n//             buf.appendUint8(uint8((major << 5) | 24));\n//             buf.appendInt(value, 1);\n//         } else if(value <= 0xFFFF) {\n//             buf.appendUint8(uint8((major << 5) | 25));\n//             buf.appendInt(value, 2);\n//         } else if(value <= 0xFFFFFFFF) {\n//             buf.appendUint8(uint8((major << 5) | 26));\n//             buf.appendInt(value, 4);\n//         } else if(value <= 0xFFFFFFFFFFFFFFFF) {\n//             buf.appendUint8(uint8((major << 5) | 27));\n//             buf.appendInt(value, 8);\n//         }\n//     }\n\n//     function encodeIndefiniteLengthType(Buffer.buffer memory buf, uint8 major) private pure {\n//         buf.appendUint8(uint8((major << 5) | 31));\n//     }\n\n//     function encodeUInt(Buffer.buffer memory buf, uint value) internal pure {\n//         encodeType(buf, MAJOR_TYPE_INT, value);\n//     }\n\n//     function encodeInt(Buffer.buffer memory buf, int value) internal pure {\n//         if(value >= 0) {\n//             encodeType(buf, MAJOR_TYPE_INT, uint(value));\n//         } else {\n//             encodeType(buf, MAJOR_TYPE_NEGATIVE_INT, uint(-1 - value));\n//         }\n//     }\n\n//     function encodeBytes(Buffer.buffer memory buf, bytes value) internal pure {\n//         encodeType(buf, MAJOR_TYPE_BYTES, value.length);\n//         buf.append(value);\n//     }\n\n//     function encodeString(Buffer.buffer memory buf, string value) internal pure {\n//         encodeType(buf, MAJOR_TYPE_STRING, bytes(value).length);\n//         buf.append(bytes(value));\n//     }\n\n//     function startArray(Buffer.buffer memory buf) internal pure {\n//         encodeIndefiniteLengthType(buf, MAJOR_TYPE_ARRAY);\n//     }\n\n//     function startMap(Buffer.buffer memory buf) internal pure {\n//         encodeIndefiniteLengthType(buf, MAJOR_TYPE_MAP);\n//     }\n\n//     function endSequence(Buffer.buffer memory buf) internal pure {\n//         encodeIndefiniteLengthType(buf, MAJOR_TYPE_CONTENT_FREE);\n//     }\n// }\n\n// // File: contracts/Chainlink.sol\n\n// pragma solidity 0.4.24;\n\n\n// /**\n//  * @title Library for common Chainlink functions\n//  * @dev Uses imported CBOR library for encoding to buffer\n//  */\n// library Chainlink {\n//   uint256 internal constant defaultBufferSize = 256;\n\n//   using CBOR for Buffer.buffer;\n\n//   struct Request {\n//     bytes32 id;\n//     address callbackAddress;\n//     bytes4 callbackFunctionId;\n//     uint256 nonce;\n//     Buffer.buffer buf;\n//   }\n\n//   /**\n//    * @notice Initializes a Chainlink request\n//    * @dev Sets the ID, callback address, and callback function signature on the request\n//    * @param self The uninitialized request\n//    * @param _id The Job Specification ID\n//    * @param _callbackAddress The callback address\n//    * @param _callbackFunction The callback function signature\n//    * @return The initialized request\n//    */\n//   function initialize(\n//     Request memory self,\n//     bytes32 _id,\n//     address _callbackAddress,\n//     bytes4 _callbackFunction\n//   ) internal pure returns (Chainlink.Request memory) {\n//     Buffer.init(self.buf, defaultBufferSize);\n//     self.id = _id;\n//     self.callbackAddress = _callbackAddress;\n//     self.callbackFunctionId = _callbackFunction;\n//     return self;\n//   }\n\n//   /**\n//    * @notice Sets the data for the buffer without encoding CBOR on-chain\n//    * @dev CBOR can be closed with curly-brackets {} or they can be left off\n//    * @param self The initialized request\n//    * @param _data The CBOR data\n//    */\n//   function setBuffer(Request memory self, bytes _data)\n//     internal pure\n//   {\n//     Buffer.init(self.buf, _data.length);\n//     Buffer.append(self.buf, _data);\n//   }\n\n//   /**\n//    * @notice Adds a string value to the request with a given key name\n//    * @param self The initialized request\n//    * @param _key The name of the key\n//    * @param _value The string value to add\n//    */\n//   function add(Request memory self, string _key, string _value)\n//     internal pure\n//   {\n//     self.buf.encodeString(_key);\n//     self.buf.encodeString(_value);\n//   }\n\n//   /**\n//    * @notice Adds a bytes value to the request with a given key name\n//    * @param self The initialized request\n//    * @param _key The name of the key\n//    * @param _value The bytes value to add\n//    */\n//   function addBytes(Request memory self, string _key, bytes _value)\n//     internal pure\n//   {\n//     self.buf.encodeString(_key);\n//     self.buf.encodeBytes(_value);\n//   }\n\n//   /**\n//    * @notice Adds a int256 value to the request with a given key name\n//    * @param self The initialized request\n//    * @param _key The name of the key\n//    * @param _value The int256 value to add\n//    */\n//   function addInt(Request memory self, string _key, int256 _value)\n//     internal pure\n//   {\n//     self.buf.encodeString(_key);\n//     self.buf.encodeInt(_value);\n//   }\n\n//   /**\n//    * @notice Adds a uint256 value to the request with a given key name\n//    * @param self The initialized request\n//    * @param _key The name of the key\n//    * @param _value The uint256 value to add\n//    */\n//   function addUint(Request memory self, string _key, uint256 _value)\n//     internal pure\n//   {\n//     self.buf.encodeString(_key);\n//     self.buf.encodeUInt(_value);\n//   }\n\n//   /**\n//    * @notice Adds an array of strings to the request with a given key name\n//    * @param self The initialized request\n//    * @param _key The name of the key\n//    * @param _values The array of string values to add\n//    */\n//   function addStringArray(Request memory self, string _key, string[] memory _values)\n//     internal pure\n//   {\n//     self.buf.encodeString(_key);\n//     self.buf.startArray();\n//     for (uint256 i = 0; i < _values.length; i++) {\n//       self.buf.encodeString(_values[i]);\n//     }\n//     self.buf.endSequence();\n//   }\n// }\n\n// // File: contracts/ENSResolver.sol\n\n// pragma solidity 0.4.24;\n\n// contract ENSResolver {\n//   function addr(bytes32 node) public view returns (address);\n// }\n\n// // File: contracts/interfaces/ENSInterface.sol\n\n// pragma solidity ^0.4.18;\n\n// interface ENSInterface {\n\n//     // Logged when the owner of a node assigns a new owner to a subnode.\n//     event NewOwner(bytes32 indexed node, bytes32 indexed label, address owner);\n\n//     // Logged when the owner of a node transfers ownership to a new account.\n//     event Transfer(bytes32 indexed node, address owner);\n\n//     // Logged when the resolver for a node changes.\n//     event NewResolver(bytes32 indexed node, address resolver);\n\n//     // Logged when the TTL of a node changes\n//     event NewTTL(bytes32 indexed node, uint64 ttl);\n\n\n//     function setSubnodeOwner(bytes32 node, bytes32 label, address owner) external;\n//     function setResolver(bytes32 node, address resolver) external;\n//     function setOwner(bytes32 node, address owner) external;\n//     function setTTL(bytes32 node, uint64 ttl) external;\n//     function owner(bytes32 node) external view returns (address);\n//     function resolver(bytes32 node) external view returns (address);\n//     function ttl(bytes32 node) external view returns (uint64);\n\n// }\n\n// // File: contracts/interfaces/LinkTokenInterface.sol\n\n// pragma solidity 0.4.24;\n\n// interface LinkTokenInterface {\n//   function allowance(address owner, address spender) external returns (bool success);\n//   function approve(address spender, uint256 value) external returns (bool success);\n//   function balanceOf(address owner) external returns (uint256 balance);\n//   function decimals() external returns (uint8 decimalPlaces);\n//   function decreaseApproval(address spender, uint256 addedValue) external returns (bool success);\n//   function increaseApproval(address spender, uint256 subtractedValue) external;\n//   function name() external returns (string tokenName);\n//   function symbol() external returns (string tokenSymbol);\n//   function totalSupply() external returns (uint256 totalTokensIssued);\n//   function transfer(address to, uint256 value) external returns (bool success);\n//   function transferAndCall(address to, uint256 value, bytes data) external returns (bool success);\n//   function transferFrom(address from, address to, uint256 value) external returns (bool success);\n// }\n\n// // File: contracts/interfaces/ChainlinkRequestInterface.sol\n\n// pragma solidity 0.4.24;\n\n// interface ChainlinkRequestInterface {\n//   function oracleRequest(\n//     address sender,\n//     uint256 payment,\n//     bytes32 id,\n//     address callbackAddress,\n//     bytes4 callbackFunctionId,\n//     uint256 nonce,\n//     uint256 version,\n//     bytes data\n//   ) external;\n\n//   function cancelOracleRequest(\n//     bytes32 requestId,\n//     uint256 payment,\n//     bytes4 callbackFunctionId,\n//     uint256 expiration\n//   ) external;\n// }\n\n// // File: contracts/interfaces/PointerInterface.sol\n\n// pragma solidity 0.4.24;\n\n// interface PointerInterface {\n//   function getAddress() external view returns (address);\n// }\n\n// // File: openzeppelin-solidity/contracts/math/SafeMath.sol\n\n// pragma solidity ^0.4.24;\n\n\n// /**\n//  * @title SafeMath\n//  * @dev Math operations with safety checks that throw on error\n//  */\n// library SafeMath {\n\n//   /**\n//   * @dev Multiplies two numbers, throws on overflow.\n//   */\n//   function mul(uint256 _a, uint256 _b) internal pure returns (uint256 c) {\n//     // Gas optimization: this is cheaper than asserting 'a' not being zero, but the\n//     // benefit is lost if 'b' is also tested.\n//     // See: https://github.com/OpenZeppelin/openzeppelin-solidity/pull/522\n//     if (_a == 0) {\n//       return 0;\n//     }\n\n//     c = _a * _b;\n//     assert(c / _a == _b);\n//     return c;\n//   }\n\n//   /**\n//   * @dev Integer division of two numbers, truncating the quotient.\n//   */\n//   function div(uint256 _a, uint256 _b) internal pure returns (uint256) {\n//     // assert(_b > 0); // Solidity automatically throws when dividing by 0\n//     // uint256 c = _a / _b;\n//     // assert(_a == _b * c + _a % _b); // There is no case in which this doesn't hold\n//     return _a / _b;\n//   }\n\n//   /**\n//   * @dev Subtracts two numbers, throws on overflow (i.e. if subtrahend is greater than minuend).\n//   */\n//   function sub(uint256 _a, uint256 _b) internal pure returns (uint256) {\n//     assert(_b <= _a);\n//     return _a - _b;\n//   }\n\n//   /**\n//   * @dev Adds two numbers, throws on overflow.\n//   */\n//   function add(uint256 _a, uint256 _b) internal pure returns (uint256 c) {\n//     c = _a + _b;\n//     assert(c >= _a);\n//     return c;\n//   }\n// }\n\n// // File: contracts/ChainlinkClient.sol\n\n// pragma solidity 0.4.24;\n\n\n\n\n\n\n\n\n// /**\n//  * @title The ChainlinkClient contract\n//  * @notice Contract writers can inherit this contract in order to create requests for the\n//  * Chainlink network\n//  */\n// contract ChainlinkClient {\n//   using Chainlink for Chainlink.Request;\n//   using SafeMath for uint256;\n\n//   uint256 constant internal LINK = 10**18;\n//   uint256 constant private AMOUNT_OVERRIDE = 0;\n//   address constant private SENDER_OVERRIDE = 0x0;\n//   uint256 constant private ARGS_VERSION = 1;\n//   bytes32 constant private ENS_TOKEN_SUBNAME = keccak256(\"link\");\n//   bytes32 constant private ENS_ORACLE_SUBNAME = keccak256(\"oracle\");\n//   address constant private LINK_TOKEN_POINTER = 0xC89bD4E1632D3A43CB03AAAd5262cbe4038Bc571;\n\n//   ENSInterface private ens;\n//   bytes32 private ensNode;\n//   LinkTokenInterface private link;\n//   ChainlinkRequestInterface private oracle;\n//   uint256 private requests = 1;\n//   mapping(bytes32 => address) private pendingRequests;\n\n//   event ChainlinkRequested(bytes32 indexed id);\n//   event ChainlinkFulfilled(bytes32 indexed id);\n//   event ChainlinkCancelled(bytes32 indexed id);\n\n//   /**\n//    * @notice Creates a request that can hold additional parameters\n//    * @param _specId The Job Specification ID that the request will be created for\n//    * @param _callbackAddress The callback address that the response will be sent to\n//    * @param _callbackFunctionSignature The callback function signature to use for the callback address\n//    * @return A Chainlink Request struct in memory\n//    */\n//   function buildChainlinkRequest(\n//     bytes32 _specId,\n//     address _callbackAddress,\n//     bytes4 _callbackFunctionSignature\n//   ) internal pure returns (Chainlink.Request memory) {\n//     Chainlink.Request memory req;\n//     return req.initialize(_specId, _callbackAddress, _callbackFunctionSignature);\n//   }\n\n//   /**\n//    * @notice Creates a Chainlink request to the stored oracle address\n//    * @dev Calls `chainlinkRequestTo` with the stored oracle address\n//    * @param _req The initialized Chainlink Request\n//    * @param _payment The amount of LINK to send for the request\n//    * @return The request ID\n//    */\n//   function sendChainlinkRequest(Chainlink.Request memory _req, uint256 _payment)\n//     internal\n//     returns (bytes32)\n//   {\n//     return sendChainlinkRequestTo(oracle, _req, _payment);\n//   }\n\n//   /**\n//    * @notice Creates a Chainlink request to the specified oracle address\n//    * @dev Generates and stores a request ID, increments the local nonce, and uses `transferAndCall` to\n//    * send LINK which creates a request on the target oracle contract.\n//    * Emits ChainlinkRequested event.\n//    * @param _oracle The address of the oracle for the request\n//    * @param _req The initialized Chainlink Request\n//    * @param _payment The amount of LINK to send for the request\n//    * @return The request ID\n//    */\n//   function sendChainlinkRequestTo(address _oracle, Chainlink.Request memory _req, uint256 _payment)\n//     internal\n//     returns (bytes32 requestId)\n//   {\n//     requestId = keccak256(abi.encodePacked(this, requests));\n//     _req.nonce = requests;\n//     pendingRequests[requestId] = _oracle;\n//     emit ChainlinkRequested(requestId);\n//     require(link.transferAndCall(_oracle, _payment, encodeRequest(_req)), \"unable to transferAndCall to oracle\");\n//     requests += 1;\n\n//     return requestId;\n//   }\n\n//   /**\n//    * @notice Allows a request to be cancelled if it has not been fulfilled\n//    * @dev Requires keeping track of the expiration value emitted from the oracle contract.\n//    * Deletes the request from the `pendingRequests` mapping.\n//    * Emits ChainlinkCancelled event.\n//    * @param _requestId The request ID\n//    * @param _payment The amount of LINK sent for the request\n//    * @param _callbackFunc The callback function specified for the request\n//    * @param _expiration The time of the expiration for the request\n//    */\n//   function cancelChainlinkRequest(\n//     bytes32 _requestId,\n//     uint256 _payment,\n//     bytes4 _callbackFunc,\n//     uint256 _expiration\n//   )\n//     internal\n//   {\n//     ChainlinkRequestInterface requested = ChainlinkRequestInterface(pendingRequests[_requestId]);\n//     delete pendingRequests[_requestId];\n//     emit ChainlinkCancelled(_requestId);\n//     requested.cancelOracleRequest(_requestId, _payment, _callbackFunc, _expiration);\n//   }\n\n//   /**\n//    * @notice Sets the stored oracle address\n//    * @param _oracle The address of the oracle contract\n//    */\n//   function setChainlinkOracle(address _oracle) internal {\n//     oracle = ChainlinkRequestInterface(_oracle);\n//   }\n\n//   /**\n//    * @notice Sets the LINK token address\n//    * @param _link The address of the LINK token contract\n//    */\n//   function setChainlinkToken(address _link) internal {\n//     link = LinkTokenInterface(_link);\n//   }\n\n//   /**\n//    * @notice Sets the Chainlink token address for the public\n//    * network as given by the Pointer contract\n//    */\n//   function setPublicChainlinkToken() internal {\n//     setChainlinkToken(PointerInterface(LINK_TOKEN_POINTER).getAddress());\n//   }\n\n//   /**\n//    * @notice Retrieves the stored address of the LINK token\n//    * @return The address of the LINK token\n//    */\n//   function chainlinkTokenAddress()\n//     internal\n//     view\n//     returns (address)\n//   {\n//     return address(link);\n//   }\n\n//   /**\n//    * @notice Retrieves the stored address of the oracle contract\n//    * @return The address of the oracle contract\n//    */\n//   function chainlinkOracleAddress()\n//     internal\n//     view\n//     returns (address)\n//   {\n//     return address(oracle);\n//   }\n\n//   /**\n//    * @notice Allows for a request which was created on another contract to be fulfilled\n//    * on this contract\n//    * @param _oracle The address of the oracle contract that will fulfill the request\n//    * @param _requestId The request ID used for the response\n//    */\n//   function addChainlinkExternalRequest(address _oracle, bytes32 _requestId)\n//     internal\n//     notPendingRequest(_requestId)\n//   {\n//     pendingRequests[_requestId] = _oracle;\n//   }\n\n//   /**\n//    * @notice Sets the stored oracle and LINK token contracts with the addresses resolved by ENS\n//    * @dev Accounts for subnodes having different resolvers\n//    * @param _ens The address of the ENS contract\n//    * @param _node The ENS node hash\n//    */\n//   function useChainlinkWithENS(address _ens, bytes32 _node)\n//     internal\n//   {\n//     ens = ENSInterface(_ens);\n//     ensNode = _node;\n//     bytes32 linkSubnode = keccak256(abi.encodePacked(ensNode, ENS_TOKEN_SUBNAME));\n//     ENSResolver resolver = ENSResolver(ens.resolver(linkSubnode));\n//     setChainlinkToken(resolver.addr(linkSubnode));\n//     updateChainlinkOracleWithENS();\n//   }\n\n//   /**\n//    * @notice Sets the stored oracle contract with the address resolved by ENS\n//    * @dev This may be called on its own as long as `useChainlinkWithENS` has been called previously\n//    */\n//   function updateChainlinkOracleWithENS()\n//     internal\n//   {\n//     bytes32 oracleSubnode = keccak256(abi.encodePacked(ensNode, ENS_ORACLE_SUBNAME));\n//     ENSResolver resolver = ENSResolver(ens.resolver(oracleSubnode));\n//     setChainlinkOracle(resolver.addr(oracleSubnode));\n//   }\n\n//   /**\n//    * @notice Encodes the request to be sent to the oracle contract\n//    * @dev The Chainlink node expects values to be in order for the request to be picked up. Order of types\n//    * will be validated in the oracle contract.\n//    * @param _req The initialized Chainlink Request\n//    * @return The bytes payload for the `transferAndCall` method\n//    */\n//   function encodeRequest(Chainlink.Request memory _req)\n//     private\n//     view\n//     returns (bytes memory)\n//   {\n//     return abi.encodeWithSelector(\n//       oracle.oracleRequest.selector,\n//       SENDER_OVERRIDE, // Sender value - overridden by onTokenTransfer by the requesting contract's address\n//       AMOUNT_OVERRIDE, // Amount value - overridden by onTokenTransfer by the actual amount of LINK sent\n//       _req.id,\n//       _req.callbackAddress,\n//       _req.callbackFunctionId,\n//       _req.nonce,\n//       ARGS_VERSION,\n//       _req.buf.buf);\n//   }\n\n//   /**\n//    * @notice Ensures that the fulfillment is valid for this contract\n//    * @dev Use if the contract developer prefers methods instead of modifiers for validation\n//    * @param _requestId The request ID for fulfillment\n//    */\n//   function validateChainlinkCallback(bytes32 _requestId)\n//     internal\n//     recordChainlinkFulfillment(_requestId)\n//     // solium-disable-next-line no-empty-blocks\n//   {}\n\n//   /**\n//    * @dev Reverts if the sender is not the oracle of the request.\n//    * Emits ChainlinkFulfilled event.\n//    * @param _requestId The request ID for fulfillment\n//    */\n//   modifier recordChainlinkFulfillment(bytes32 _requestId) {\n//     require(msg.sender == pendingRequests[_requestId], \"Source must be the oracle of the request\");\n//     delete pendingRequests[_requestId];\n//     emit ChainlinkFulfilled(_requestId);\n//     _;\n//   }\n\n//   /**\n//    * @dev Reverts if the request is already pending\n//    * @param _requestId The request ID for fulfillment\n//    */\n//   modifier notPendingRequest(bytes32 _requestId) {\n//     require(pendingRequests[_requestId] == address(0), \"Request is already pending\");\n//     _;\n//   }\n// }\n\n// // File: openzeppelin-solidity/contracts/ownership/Ownable.sol\n\n// pragma solidity ^0.4.24;\n\n\n// /**\n//  * @title Ownable\n//  * @dev The Ownable contract has an owner address, and provides basic authorization control\n//  * functions, this simplifies the implementation of \"user permissions\".\n//  */\n// contract Ownable {\n//   address public owner;\n\n\n//   event OwnershipRenounced(address indexed previousOwner);\n//   event OwnershipTransferred(\n//     address indexed previousOwner,\n//     address indexed newOwner\n//   );\n\n\n//   /**\n//    * @dev The Ownable constructor sets the original `owner` of the contract to the sender\n//    * account.\n//    */\n//   constructor() public {\n//     owner = msg.sender;\n//   }\n\n//   /**\n//    * @dev Throws if called by any account other than the owner.\n//    */\n//   modifier onlyOwner() {\n//     require(msg.sender == owner);\n//     _;\n//   }\n\n//   /**\n//    * @dev Allows the current owner to relinquish control of the contract.\n//    * @notice Renouncing to ownership will leave the contract without an owner.\n//    * It will not be possible to call the functions with the `onlyOwner`\n//    * modifier anymore.\n//    */\n//   function renounceOwnership() public onlyOwner {\n//     emit OwnershipRenounced(owner);\n//     owner = address(0);\n//   }\n\n//   /**\n//    * @dev Allows the current owner to transfer control of the contract to a newOwner.\n//    * @param _newOwner The address to transfer ownership to.\n//    */\n//   function transferOwnership(address _newOwner) public onlyOwner {\n//     _transferOwnership(_newOwner);\n//   }\n\n//   /**\n//    * @dev Transfers control of the contract to a newOwner.\n//    * @param _newOwner The address to transfer ownership to.\n//    */\n//   function _transferOwnership(address _newOwner) internal {\n//     require(_newOwner != address(0));\n//     emit OwnershipTransferred(owner, _newOwner);\n//     owner = _newOwner;\n//   }\n// }\n\n// // File: ../examples/testnet/TestnetConsumerBase.sol\n\n\npragma solidity >=0.4.22 <0.6.0;\nimport \"chainlink/contracts/ChainlinkClient.sol\";\nimport \"openzeppelin-solidity/contracts/ownership/Ownable.sol\";\n\ncontract DonationsManager is ChainlinkClient, Ownable {\n  \n    event UpdatedISP(\n      address indexed isp, \n      bytes32 indexed countryName,\n      uint indexed monthlyServiceCost\n    );\n\n    event DonationAdded(\n      bytes32 countryName,\n      address donor, \n      uint amount, \n      uint time\n    );\n\n    event WithdrawalISP(\n      bytes32 countryName,\n      address ISP, \n      uint amount\n    );\n\n    address public _owner;\n    uint256 currentPrice;\n\n    struct Country {\n      address currentISP;\n      uint balance;\n      uint monthlyServiceCost;\n    }\n    mapping (bytes32 => Country) public countries;\n\n    struct Donation {\n      address donor;\n      uint amount;\n      uint timestamp;\n      bytes32 countryName;\n    }\n\n    mapping (address => Donation) public donations;\n\n    modifier isISP(bytes32 name) {\n        require(countries[name].currentISP == msg.sender, 'not the ISP for this country');\n        _;\n    }\n    modifier onlyOwner() {\n        require(msg.sender == _owner, 'not the owner');\n    _;\n    }\n\n    constructor() public {\n        _owner = msg.sender;\n        setPublicChainlinkToken();\n\n    }\n    \n    function updateISP(address isp, bytes32 country, uint serviceCost) public onlyOwner {\n        countries[country].currentISP = isp;\n        countries[country].monthlyServiceCost = serviceCost;\n        emit UpdatedISP(isp, country, serviceCost);\n    }\n    function addDonation(bytes32 nameofCountry) public {\n        donations[msg.sender].donor = msg.sender;\n        donations[msg.sender].amount = msg.value;\n        donations[msg.sender].countryName = nameofCountry;\n        donations[msg.sender].timestamp = now;\n        emit DonationAdded(nameofCountry, msg.sender, msg.value, now);\n    }\n    function withdraw(bytes32 countryName) public isISP(countryName) {\n        require(countries[countryName].currentISP == msg.sender, 'not the ISP for this country');\n        require(countries[countryName].balance >= countries[countryName].monthlyServiceCost, 'not enough funding for cover monthly cost');\n        countries[countryName].balance -= countries[countryName].monthlyServiceCost;\n        msg.sender.transfer(countries[countryName].monthlyServiceCost);\n        emit WithdrawalISP(countryName, msg.sender, countries[countryName].monthlyServiceCost);\n    }\n\n      function requestEthereumPrice(address _oracle, string _jobId)\n    public\n    onlyOwner\n  {\n    Chainlink.Request memory req = buildChainlinkRequest(stringToBytes32(_jobId), this, this.fulfill.selector); // edit\n    req.add(\"url\", \"https://min-api.cryptocompare.com/data/price?fsym=ETH&tsyms=USD\");\n    req.add(\"path\", \"USD\");\n    req.addInt(\"times\", 100);\n    sendChainlinkRequestTo(_oracle, req, 1*LINK);\n  }\n\n  function fulfill(bytes32 _requestId, uint256 _price)  // edit\n    public\n    recordChainlinkFulfillment(_requestId)\n  {\n    currentPrice = _price; //currentPrice var doesnt exist need action. C\n  }\n\n    function stringToBytes32(string memory source) private pure returns (bytes32 result) {\n    bytes memory tempEmptyStringTest = bytes(source);\n    if (tempEmptyStringTest.length == 0) {\n      return 0x0;\n    }\n\n    assembly {\n      result := mload(add(source, 32))\n    }\n  }\n\n\n}\n",
  "sourcePath": "/Users/saga/Documents/ETH New York/eth-new-york-2019/chainlink/contracts/DonationsManager.sol",
  "compiler": {
    "name": "solc",
    "version": "0.4.24+commit.e67f0147.Emscripten.clang"
  },
  "schemaVersion": "3.0.9",
  "updatedAt": "2019-05-19T03:39:47.611Z",
  "devdoc": {
    "methods": {
      "renounceOwnership()": {
        "details": "Allows the current owner to relinquish control of the contract."
      },
      "transferOwnership(address)": {
        "details": "Allows the current owner to transfer control of the contract to a newOwner.",
        "params": {
          "_newOwner": "The address to transfer ownership to."
        }
      }
    }
  },
  "userdoc": {
    "methods": {
      "renounceOwnership()": {
        "notice": "Renouncing to ownership will leave the contract without an owner. It will not be possible to call the functions with the `onlyOwner` modifier anymore."
      }
    }
  }
}